{
  "address": "0xfbf61a33ab9eA16D7191d68298D0298B6e62b61c",
  "abi": [
    {
      "inputs": [],
      "stateMutability": "nonpayable",
      "type": "constructor"
    },
    {
      "anonymous": false,
      "inputs": [
        {
          "indexed": true,
          "internalType": "address",
          "name": "token",
          "type": "address"
        },
        {
          "indexed": true,
          "internalType": "address",
          "name": "from",
          "type": "address"
        },
        {
          "indexed": true,
          "internalType": "address",
          "name": "recipient",
          "type": "address"
        },
        {
          "indexed": false,
          "internalType": "uint256",
          "name": "amount",
          "type": "uint256"
        }
      ],
      "name": "Deposit",
      "type": "event"
    },
    {
      "anonymous": false,
      "inputs": [
        {
          "indexed": true,
          "internalType": "address",
          "name": "previousOwner",
          "type": "address"
        },
        {
          "indexed": true,
          "internalType": "address",
          "name": "newOwner",
          "type": "address"
        }
      ],
      "name": "OwnershipTransferred",
      "type": "event"
    },
    {
      "anonymous": false,
      "inputs": [
        {
          "indexed": true,
          "internalType": "address",
          "name": "token",
          "type": "address"
        },
        {
          "indexed": true,
          "internalType": "address",
          "name": "to",
          "type": "address"
        },
        {
          "indexed": false,
          "internalType": "uint256",
          "name": "amount",
          "type": "uint256"
        }
      ],
      "name": "Rescue",
      "type": "event"
    },
    {
      "anonymous": false,
      "inputs": [
        {
          "indexed": true,
          "internalType": "address",
          "name": "token",
          "type": "address"
        },
        {
          "indexed": true,
          "internalType": "address",
          "name": "recipient",
          "type": "address"
        },
        {
          "indexed": true,
          "internalType": "address",
          "name": "to",
          "type": "address"
        },
        {
          "indexed": false,
          "internalType": "uint256",
          "name": "amount",
          "type": "uint256"
        }
      ],
      "name": "Withdraw",
      "type": "event"
    },
    {
      "inputs": [
        {
          "internalType": "address",
          "name": "",
          "type": "address"
        },
        {
          "internalType": "address",
          "name": "",
          "type": "address"
        }
      ],
      "name": "balances",
      "outputs": [
        {
          "internalType": "uint256",
          "name": "",
          "type": "uint256"
        }
      ],
      "stateMutability": "view",
      "type": "function"
    },
    {
      "inputs": [
        {
          "internalType": "address",
          "name": "token",
          "type": "address"
        },
        {
          "internalType": "address",
          "name": "recipient",
          "type": "address"
        },
        {
          "internalType": "uint256",
          "name": "amount",
          "type": "uint256"
        }
      ],
      "name": "deposit",
      "outputs": [],
      "stateMutability": "payable",
      "type": "function"
    },
    {
      "inputs": [],
      "name": "owner",
      "outputs": [
        {
          "internalType": "address",
          "name": "",
          "type": "address"
        }
      ],
      "stateMutability": "view",
      "type": "function"
    },
    {
      "inputs": [
        {
          "internalType": "address",
          "name": "token",
          "type": "address"
        },
        {
          "internalType": "address",
          "name": "to",
          "type": "address"
        },
        {
          "internalType": "uint256",
          "name": "amount",
          "type": "uint256"
        }
      ],
      "name": "rescue",
      "outputs": [],
      "stateMutability": "nonpayable",
      "type": "function"
    },
    {
      "inputs": [
        {
          "internalType": "address",
          "name": "newOwner",
          "type": "address"
        }
      ],
      "name": "transferOwnership",
      "outputs": [],
      "stateMutability": "nonpayable",
      "type": "function"
    },
    {
      "inputs": [
        {
          "internalType": "address",
          "name": "token",
          "type": "address"
        },
        {
          "internalType": "address",
          "name": "to",
          "type": "address"
        },
        {
          "internalType": "uint256",
          "name": "amount",
          "type": "uint256"
        }
      ],
      "name": "withdraw",
      "outputs": [],
      "stateMutability": "nonpayable",
      "type": "function"
    },
    {
      "stateMutability": "payable",
      "type": "receive"
    }
  ],
  "transactionHash": "0xde2c2cdba43200f18333b69cf4e69cb001234ef03b63adba71c061755f0b566e",
  "args": [],
  "numDeployments": 1,
  "solcInputHash": "e4f1d142ae9dca9a195e8788c853e17a",
  "bytecode": "0x608060405234801561000f575f80fd5b5060015f81815581546001600160a01b031916339081179092556040517f8be0079c531659141344cd1fd0a4f28419497f9722a3daafe3b4186f6b6457e0908290a3610de88061005e5f395ff3fe608060405260043610610057575f3560e01c806320ff430b146100dd5780638340f549146100fe5780638da5cb5b14610111578063c23f001f1461014d578063d9caed1214610191578063f2fde38b146101b0575f80fd5b366100d957335f9081527fac33ff75c19e70fe83507db0d683fd3465c996598dc972688b7ace676c89077b602052604081208054349290610099908490610c88565b9091555050604051348152339081905f907f7cfff908a4b583f36430b25d75964c458d8ede8a99bd61be750e97ee1b2f3a969060200160405180910390a4005b5f80fd5b3480156100e8575f80fd5b506100fc6100f7366004610cbc565b6101cf565b005b6100fc61010c366004610cbc565b610579565b34801561011c575f80fd5b50600154610130906001600160a01b031681565b6040516001600160a01b0390911681526020015b60405180910390f35b348015610158575f80fd5b50610183610167366004610cf5565b600260209081525f928352604080842090915290825290205481565b604051908152602001610144565b34801561019c575f80fd5b506100fc6101ab366004610cbc565b61087d565b3480156101bb575f80fd5b506100fc6101ca366004610d26565b610b69565b6001546001600160a01b0316331461022e5760405162461bcd60e51b815260206004820152601f60248201527f4f475661756c745061793a2063616c6c6572206973206e6f74206f776e65720060448201526064015b60405180910390fd5b5f5460011461024f5760405162461bcd60e51b815260040161022590610d46565b60025f556001600160a01b03821661029f5760405162461bcd60e51b81526020600482015260136024820152724f475661756c745061793a20746f207a65726f60681b6044820152606401610225565b6001600160a01b0383166103a45747818110156102fe5760405162461bcd60e51b815260206004820152601f60248201527f4f475661756c745061793a20696e73756666696369656e74206e6174697665006044820152606401610225565b5f836001600160a01b0316836040515f6040518083038185875af1925050503d805f8114610347576040519150601f19603f3d011682016040523d82523d5f602084013e61034c565b606091505b505090508061039d5760405162461bcd60e51b815260206004820181905260248201527f4f475661756c745061793a206e617469766520726573637565206661696c65646044820152606401610225565b5050610523565b6040516370a0823160e01b81523060048201525f906001600160a01b038516906370a0823190602401602060405180830381865afa1580156103e8573d5f803e3d5ffd5b505050506040513d601f19601f8201168201806040525081019061040c9190610d69565b90508181101561045e5760405162461bcd60e51b815260206004820152601e60248201527f4f475661756c745061793a20696e73756666696369656e7420746f6b656e00006044820152606401610225565b60405163a9059cbb60e01b81526001600160a01b038481166004830152602482018490525f919086169063a9059cbb906044016020604051808303815f875af11580156104ad573d5f803e3d5ffd5b505050506040513d601f19601f820116820180604052508101906104d19190610d80565b9050806105205760405162461bcd60e51b815260206004820152601f60248201527f4f475661756c745061793a20746f6b656e20726573637565206661696c6564006044820152606401610225565b50505b816001600160a01b0316836001600160a01b03167fe01920728668d89f092ef9cb92036bad90964bb622eec508d2c3ffe1d582efb28360405161056891815260200190565b60405180910390a3505060015f5550565b5f5460011461059a5760405162461bcd60e51b815260040161022590610d46565b60025f556001600160a01b0382166105f45760405162461bcd60e51b815260206004820152601a60248201527f4f475661756c745061793a20726563697069656e74207a65726f0000000000006044820152606401610225565b6001600160a01b0383166106a2578034146106515760405162461bcd60e51b815260206004820152601e60248201527f4f475661756c745061793a206d73672e76616c7565206d69736d6174636800006044820152606401610225565b6001600160a01b0382165f9081527fac33ff75c19e70fe83507db0d683fd3465c996598dc972688b7ace676c89077b602052604081208054839290610697908490610c88565b9091555061081d9050565b341561070d5760405162461bcd60e51b815260206004820152603460248201527f4f475661756c745061793a20646f206e6f742073656e64206e61746976652077604482015273068656e206465706f736974696e672045524332360641b6064820152608401610225565b6040516323b872dd60e01b8152336004820152306024820152604481018290525f906001600160a01b038516906323b872dd906064016020604051808303815f875af115801561075f573d5f803e3d5ffd5b505050506040513d601f19601f820116820180604052508101906107839190610d80565b9050806107e05760405162461bcd60e51b815260206004820152602560248201527f4f475661756c745061793a204552433230207472616e7366657246726f6d2066604482015264185a5b195960da1b6064820152608401610225565b6001600160a01b038085165f90815260026020908152604080832093871683529290529081208054849290610816908490610c88565b9091555050505b816001600160a01b0316336001600160a01b0316846001600160a01b03167f7cfff908a4b583f36430b25d75964c458d8ede8a99bd61be750e97ee1b2f3a968460405161086c91815260200190565b60405180910390a4505060015f5550565b5f5460011461089e5760405162461bcd60e51b815260040161022590610d46565b60025f556001600160a01b0382166108ee5760405162461bcd60e51b81526020600482015260136024820152724f475661756c745061793a20746f207a65726f60681b6044820152606401610225565b6001600160a01b0383165f908152600260209081526040808320338452909152902054818110156109615760405162461bcd60e51b815260206004820181905260248201527f4f475661756c745061793a20696e73756666696369656e742062616c616e63656044820152606401610225565b61096b8282610d9f565b6001600160a01b0385165f818152600260209081526040808320338452909152902091909155610a3a575f836001600160a01b0316836040515f6040518083038185875af1925050503d805f81146109de576040519150601f19603f3d011682016040523d82523d5f602084013e6109e3565b606091505b5050905080610a345760405162461bcd60e51b815260206004820152601e60248201527f4f475661756c745061793a206e61746976652073656e64206661696c656400006044820152606401610225565b50610b08565b60405163a9059cbb60e01b81526001600160a01b038481166004830152602482018490525f919086169063a9059cbb906044016020604051808303815f875af1158015610a89573d5f803e3d5ffd5b505050506040513d601f19601f82011682018060405250810190610aad9190610d80565b905080610b065760405162461bcd60e51b815260206004820152602160248201527f4f475661756c745061793a204552433230207472616e73666572206661696c656044820152601960fa1b6064820152608401610225565b505b826001600160a01b0316336001600160a01b0316856001600160a01b03167f3115d1449a7b732c986cba18244e897a450f61e1bb8d589cd2e69e6c8924f9f785604051610b5791815260200190565b60405180910390a4505060015f555050565b6001546001600160a01b03163314610bc35760405162461bcd60e51b815260206004820152601f60248201527f4f475661756c745061793a2063616c6c6572206973206e6f74206f776e6572006044820152606401610225565b6001600160a01b038116610c195760405162461bcd60e51b815260206004820152601960248201527f4f475661756c745061793a206e65774f776e6572207a65726f000000000000006044820152606401610225565b6001546040516001600160a01b038084169216907f8be0079c531659141344cd1fd0a4f28419497f9722a3daafe3b4186f6b6457e0905f90a3600180546001600160a01b0319166001600160a01b0392909216919091179055565b634e487b7160e01b5f52601160045260245ffd5b80820180821115610c9b57610c9b610c74565b92915050565b80356001600160a01b0381168114610cb7575f80fd5b919050565b5f805f60608486031215610cce575f80fd5b610cd784610ca1565b9250610ce560208501610ca1565b9150604084013590509250925092565b5f8060408385031215610d06575f80fd5b610d0f83610ca1565b9150610d1d60208401610ca1565b90509250929050565b5f60208284031215610d36575f80fd5b610d3f82610ca1565b9392505050565b6020808252600990820152681499595b9d1c985b9d60ba1b604082015260600190565b5f60208284031215610d79575f80fd5b5051919050565b5f60208284031215610d90575f80fd5b81518015158114610d3f575f80fd5b81810381811115610c9b57610c9b610c7456fea2646970667358221220251cfb5d40a720ae401953de3c9f947271da86ea8ebd48dc6c4608afc573388964736f6c63430008180033",
  "devdoc": {
    "kind": "dev",
    "methods": {
      "deposit(address,address,uint256)": {
        "params": {
          "amount": "amount to deposit (in wei or token decimals)",
          "recipient": "the address credited in internal ledger",
          "token": "address(0) for native, otherwise ERC20 token address"
        }
      },
      "rescue(address,address,uint256)": {
        "params": {
          "amount": "amount to rescue",
          "to": "destination",
          "token": "token address to rescue (address(0) for native)"
        }
      },
      "withdraw(address,address,uint256)": {
        "params": {
          "amount": "amount to withdraw",
          "to": "recipient external address where funds will be sent",
          "token": "address(0) for native, otherwise ERC20 token address"
        }
      }
    },
    "version": 1
  },
  "userdoc": {
    "kind": "user",
    "methods": {
      "deposit(address,address,uint256)": {
        "notice": "Deposit funds for a recipient. If token == address(0) send native with msg.value."
      },
      "rescue(address,address,uint256)": {
        "notice": "Owner rescue function - withdraw accidental tokens/native to `to`."
      },
      "transferOwnership(address)": {
        "notice": "Update owner"
      },
      "withdraw(address,address,uint256)": {
        "notice": "Withdraw balance for msg.sender (recipient). Withdraws native or ERC20 to `to`."
      }
    },
    "version": 1
  },
  "storageLayout": {
    "storage": [
      {
        "astId": 55,
        "contract": "contracts/OGVaultPay.sol:OGVaultPay",
        "label": "_status",
        "offset": 0,
        "slot": "0",
        "type": "t_uint256"
      },
      {
        "astId": 87,
        "contract": "contracts/OGVaultPay.sol:OGVaultPay",
        "label": "owner",
        "offset": 0,
        "slot": "1",
        "type": "t_address"
      },
      {
        "astId": 93,
        "contract": "contracts/OGVaultPay.sol:OGVaultPay",
        "label": "balances",
        "offset": 0,
        "slot": "2",
        "type": "t_mapping(t_address,t_mapping(t_address,t_uint256))"
      }
    ],
    "types": {
      "t_address": {
        "encoding": "inplace",
        "label": "address",
        "numberOfBytes": "20"
      },
      "t_mapping(t_address,t_mapping(t_address,t_uint256))": {
        "encoding": "mapping",
        "key": "t_address",
        "label": "mapping(address => mapping(address => uint256))",
        "numberOfBytes": "32",
        "value": "t_mapping(t_address,t_uint256)"
      },
      "t_mapping(t_address,t_uint256)": {
        "encoding": "mapping",
        "key": "t_address",
        "label": "mapping(address => uint256)",
        "numberOfBytes": "32",
        "value": "t_uint256"
      },
      "t_uint256": {
        "encoding": "inplace",
        "label": "uint256",
        "numberOfBytes": "32"
      }
    }
  }
}